{
  "contractName": "HazardCategory",
  "abi": [
    {
      "constant": true,
      "inputs": [],
      "name": "creator",
      "outputs": [
        {
          "name": "",
          "type": "address"
        }
      ],
      "payable": false,
      "stateMutability": "view",
      "type": "function"
    },
    {
      "constant": true,
      "inputs": [],
      "name": "getCategories",
      "outputs": [
        {
          "name": "",
          "type": "uint256[256]"
        }
      ],
      "payable": false,
      "stateMutability": "view",
      "type": "function"
    },
    {
      "constant": false,
      "inputs": [
        {
          "name": "code",
          "type": "uint256"
        }
      ],
      "name": "addCategory",
      "outputs": [
        {
          "name": "length",
          "type": "uint256"
        }
      ],
      "payable": false,
      "stateMutability": "nonpayable",
      "type": "function"
    },
    {
      "constant": true,
      "inputs": [
        {
          "name": "",
          "type": "uint256"
        }
      ],
      "name": "categories",
      "outputs": [
        {
          "name": "",
          "type": "uint256"
        }
      ],
      "payable": false,
      "stateMutability": "view",
      "type": "function"
    },
    {
      "inputs": [],
      "payable": false,
      "stateMutability": "nonpayable",
      "type": "constructor"
    }
  ],
  "bytecode": "0x6060604052341561000f57600080fd5b336000806101000a81548173ffffffffffffffffffffffffffffffffffffffff021916908373ffffffffffffffffffffffffffffffffffffffff1602179055506102dd8061005e6000396000f300606060405260043610610062576000357c0100000000000000000000000000000000000000000000000000000000900463ffffffff16806302d05d3f146100675780634db0412c146100bc5780634e2085711461010e578063c6cdbe5e14610145575b600080fd5b341561007257600080fd5b61007a61017c565b604051808273ffffffffffffffffffffffffffffffffffffffff1673ffffffffffffffffffffffffffffffffffffffff16815260200191505060405180910390f35b34156100c757600080fd5b6100cf6101a1565b604051808261010060200280838360005b838110156100fb5780820151818401526020810190506100e0565b5050505090500191505060405180910390f35b341561011957600080fd5b61012f60048080359060200190919050506101ee565b6040518082815260200191505060405180910390f35b341561015057600080fd5b610166600480803590602001909190505061026c565b6040518082815260200191505060405180910390f35b6000809054906101000a900473ffffffffffffffffffffffffffffffffffffffff1681565b6101a9610287565b600161010080602002604051908101604052809291908261010080156101e4576020028201915b8154815260200190600101908083116101d0575b5050505050905090565b6000806000809054906101000a900473ffffffffffffffffffffffffffffffffffffffff1673ffffffffffffffffffffffffffffffffffffffff163373ffffffffffffffffffffffffffffffffffffffff1614151561024c57600080fd5b826001610100808110151561025d57fe5b01819055905080915050919050565b6001816101008110151561027c57fe5b016000915090505481565b61200060405190810160405280610100905b600081526020019060019003908161029957905050905600a165627a7a723058206e0962a7359d21eb5e94365b66ede4be08b8aa15c6170dddd9722a04bf68e8c90029",
  "source": "pragma solidity ^0.4.17;\n\ncontract HazardCategory {\n    \n    address public creator;\n\n    uint[256] public categories;\n\n    /*\n     *  Modifiers\n     */\n    modifier isCreator() {\n        // Only creator is allowed to proceed\n        require(msg.sender == creator);\n        _;\n    }\n\n    function HazardCategory() public {\n        creator = msg.sender;\n    }\n\n    function addCategory(uint code) isCreator public returns (uint length){\n        var newLength = categories[categories.length] = code;\n        return newLength;\n    }\n\n    function getCategories() public view returns (uint[256]) {\n        return categories;\n    }\n\n}",
  "sourcePath": "/Users/william/Work/GRE/gre-core/contracts/HazardCategory.sol",
  "compiler": {
    "name": "solc",
    "version": "0.4.18+commit.9cf6e910.Emscripten.clang"
  },
  "schemaVersion": "1.0.1",
  "updatedAt": "2018-01-17T06:22:27.859Z"
}